:100000000C9446000C9465000C9465000C946500FB
:100010000C9465000C9465000C9465000C946500CC
:100020000C9465000C9465000C9465000C946500BC
:100030000C9465000C9465000C9465000C946500AC
:100040000C9465000C9465000C9465000C9465009C
:100050000C9465000C9465000C9465000C9465008C
:100060000C9465000C9465000C9465000C9465007C
:100070000C9465000C9465000C9465000C9465006C
:100080000C9465000C9465000C94650011241FBE4F
:10009000CFEFD0E4DEBFCDBF11E0A0E0B1E0E0ECF7
:1000A000F1E000E00BBF02C007900D92AE30B10747
:1000B000D9F721E0AEE0B1E001C01D92A231B20754
:1000C000E1F70E94D4000C94DE000C940000CF9362
:1000D000C82F8A3019F48DE00E9467008091C0001B
:1000E00085FFFCCFC093C60080E090E0CF910895DB
:1000F00080910E0190910F018130910579F038F0D7
:100100008230910591F083309105F1F02CC021E00F
:1001100030E0309311012093100129C022E030E03B
:10012000309311012093100122C020B1211105C08C
:1001300090931101809310011AC023E030E03093B6
:1001400011012093100113C020B1213029F49093A4
:100150001101809310010BC022E030E030931101B7
:100160002093100104C090931101809310018130FD
:10017000910519F0039721F00EC081E085B90BC0FD
:1001800085B1813019F482E085B905C085B182302E
:1001900011F481E085B98091100190911101909343
:1001A0000F0180930E01089511B88FEF82B984B9C1
:1001B00015B881E085B90E947800FDCFF894FFCF93
:0E01C0000000000200000000670000000000C8
:00000001FF
