:100000000C9468000C9487000C9487000C94870073
:100010000C9487000C9487000C9487000C94870044
:100020000C9487000C9487000C9487000C94870034
:100030000C9487000C9470030C9487000C94870038
:100040000C9487000C9487000C9487000C94870014
:100050000C9487000C9487000C9487000C94870004
:100060000C9487000C9487000C9487000C948700F4
:100070000C9487000C9487000C9487000C948700E4
:100080000C9487000C9487000C948700E802F80217
:10009000F802F802F802F802F802C702F802F802C1
:1000A000F802F802F802D802EA01FB010C021D0274
:1000B0002E023F02500261027202F802F802F802B8
:1000C000F802F802F802F80283029402A502B602CE
:1000D00011241FBECFEFD0E4DEBFCDBF11E0A0E002
:1000E000B1E0EAECF8E000E00BBF02C007900D922F
:1000F000A431B107D9F721E0A4E1B1E001C01D921C
:10010000A632B207E1F70E94BF030C9463040C947B
:10011000000040E050E00DC0000000002F5F3F4FA6
:1001200002C020E030E0273063E03607ACF34F5FD9
:100130005F4F48175907ACF308959BB19F7B9BB95C
:1001400088B98BB180688BB9000000008BB18F77C4
:100150008BB982E090E00E948900089581E00E94BE
:100160009D000895813120F481580E949D000895DA
:1001700081550E949D00089584E690E00E948900C8
:1001800088E30E949D0086E00E949D008FE00E940F
:100190009D0081E00E949D008AE090E00E9489001D
:1001A00008959BB190649BB988B98BB180688BB975
:1001B000000000008BB18F778BB981E090E00E9446
:1001C00089000895EF92FF920F931F93CF93DF93CF
:1001D000182FEB010E94AE000EC001E0010F812F2D
:1001E0000E94B2007E018FEFE81AF80A88810E940F
:1001F000D100102FE70188818111EFCFDF91CF91DE
:100200001F910F91FF90EF900895442349F021E052
:1002100030E002C0220F331F6A95E2F7822B089567
:1002200021E030E002C0220F331F6A95E2F72095EB
:100230008223089521E030E002C0220F331F6A9527
:10024000E2F78223089540E064E08FEF0E94050109
:1002500082B9000080B160E080950E941A0181118E
:1002600080C080B161E080950E941A0181117BC03D
:1002700080B162E080950E941A01811176C080B140
:1002800063E080950E941A01811171C040E065E031
:100290008FEF0E94050182B9000080B160E0809577
:1002A0000E941A01811165C080B161E080950E94B1
:1002B0001A01811160C080B162E080950E941A012C
:1002C00081115BC080B163E080950E941A018111A9
:1002D00056C040E066E08FEF0E94050182B9000041
:1002E00080B160E080950E941A0181114AC080B1FE
:1002F00061E080950E941A01811145C080B162E0E1
:1003000080950E941A01811140C080B163E0809500
:100310000E941A0181113BC040E067E08FEF0E940C
:10032000050182B9000080B160E080950E941A0149
:1003300081112FC080B161E080950E941A01811166
:100340002AC080B162E080950E941A01811125C007
:1003500080B163E080950E941A018823F9F084E45B
:10036000089581E3089584E3089587E308958AE278
:10037000089582E3089585E3089588E3089580E36E
:10038000089583E3089586E3089589E3089583E259
:10039000089581E4089582E4089583E40895CF9355
:1003A000DF93EC010E942301E82F80912501813128
:1003B00010F010922501209709F025C18E2F90E0B2
:1003C000FC01B397E232F10508F012C1EA5BFF4F7E
:1003D0000C945A0481E080931401E0912501F0E02F
:1003E000E050FF4F81E3808360E071E080E090E0C7
:1003F0000E94E200FDC082E080931401E09125019B
:10040000F0E0E050FF4F82E3808360E071E080E045
:1004100090E00E94E200ECC083E080931401E09140
:100420002501F0E0E050FF4F83E3808360E071E05E
:1004300080E090E00E94E200DBC084E08093140141
:10044000E0912501F0E0E050FF4F84E3808360E01D
:1004500071E080E090E00E94E200CAC085E08093F5
:100460001401E0912501F0E0E050FF4F85E3808327
:1004700060E071E080E090E00E94E200B9C086E0B8
:1004800080931401E0912501F0E0E050FF4F86E3F6
:10049000808360E071E080E090E00E94E200A8C00C
:1004A00087E080931401E0912501F0E0E050FF4FD8
:1004B00087E3808360E071E080E090E00E94E200EA
:1004C00097C088E080931401E0912501F0E0E050AE
:1004D000FF4F88E3808360E071E080E090E00E945D
:1004E000E20086C089E080931401E0912501F0E0EC
:1004F000E050FF4F89E3808360E071E080E090E0AE
:100500000E94E20075C08AE080931401E091250109
:10051000F0E0E050FF4F8AE3808360E071E080E02C
:1005200090E00E94E20064C08BE080931401E091AF
:100530002501F0E0E050FF4F8BE3808360E071E045
:1005400080E090E00E94E20053C08CE080931401B0
:10055000E0912501F0E0E050FF4F8CE3808360E004
:1005600071E080E090E00E94E20042C08DE0809364
:100570001401E0912501F0E0E050FF4F8DE380830E
:1005800060E071E080E090E00E94E20031C08EE027
:1005900080931401E0912501F0E0E050FF4F8EE3DD
:1005A000808360E071E080E090E00E94E20020C083
:1005B00010921401E0912501F0E0E050FF4F80E33C
:1005C000808360E071E080E090E00E94E20010C073
:1005D0008FE080931401E0912501F0E0E050FF4F9F
:1005E0008FE3808360E071E080E090E00E94E200B1
:1005F000809125018F5F809325018091140185B939
:100600008091140188B9CE01DF91CF9108950F93A5
:100610001F93CF93DF93B62FA72FF82FE92F022F29
:10062000132FD42FC52F04C0062F172FD82FC92F53
:100630006B2F7A2F8F2F9E2F202F312F4D2F5C2F36
:100640000E943804B02FA12FFD2FEC2F61157105EA
:100650008105910549F7602F712F8D2F9C2FDF9118
:10066000CF911F910F910895609310017093110124
:1006700080931201909313016093150170931601FA
:10068000809317019093180108958BE08093810067
:100690008DE790E0909389008093880082E08093BA
:1006A0006F0010928500109284008091100190914B
:1006B0001101A0911201B091130180931501909343
:1006C0001601A0931701B09318018FB780688FBFF0
:1006D000089510928100089581E080931901089592
:1006E0001F920F920FB60F9211240BB60F922F93F9
:1006F0003F934F935F936F937F938F939F93AF93AA
:10070000BF93EF93FF938091150190911601A091F3
:100710001701B09118010197A109B1098093150142
:1007200090931601A0931701B0931801892B8A2B7F
:100730008B2B91F40E946C03809110019091110118
:10074000A0911201B09113018093150190931601AD
:10075000A0931701B0931801FF91EF91BF91AF9152
:100760009F918F917F916F915F914F913F912F91C9
:100770000F900BBE0F900FBE0F901F901895CF9348
:10078000DF9300D0CDB7DEB780EF81B98FE082B9BB
:100790008FEF84B915B887B918B88AB91BB8EAE1E0
:1007A000F1E0FA83E98310828AE090E0A0E0B0E013
:1007B00081839283A383B48385839683A783B08741
:1007C0008FEC91E09287818761E070E080E090E0BB
:1007D0000E9434030E9445030E94BC000E94AE00A8
:1007E00000E010E03BC0F801EE0FFF1F81E090E059
:1007F0008C0F9D1FE80FF91FE080F180D70115963F
:100800004D915D916D917C91189711968D919D916F
:100810000D90BC91A02D481759076A077B0781F4FA
:10082000D7011996ED91FC911A978C91082E000C26
:10083000990B0995F701808315821682178210861D
:10084000F70185819681A781B0850196A11DB11D13
:1008500085839683A783B0870F5F1F4F011511050E
:1008600011F2809119018823E1F310921901B8CF98
:10087000A1E21A2EAA1BBB1BFD010DC0AA1FBB1FA4
:10088000EE1FFF1FA217B307E407F50720F0A21B16
:10089000B30BE40BF50B661F771F881F991F1A9483
:1008A00069F760957095809590959B01AC01BD01AD
:1008B000CF010895EE0FFF1F0024001C0BBE079010
:0A08C000F691E02D0994F894FFCFA3
:1008CA0068656C6C6F00000000000000000000000A
:0408DA000100000019
:00000001FF
