:100000000C9446000C9458000C9458000C94580022
:100010000C9458000C9458000C9458000C94580000
:100020000C9458000C9458000C9458000C945800F0
:100030000C9458000C9458000C9458000C945800E0
:100040000C9458000C9458000C9458000C945800D0
:100050000C9458000C9458000C9458000C945800C0
:100060000C9458000C9458000C9458000C945800B0
:100070000C9458000C9458000C9458000C945800A0
:100080000C9458000C9458000C94580011241FBE76
:10009000CFEFD0E4DEBFCDBF21E0A0E0B1E001C0F2
:1000A0001D92A430B207E1F70E945A000C94B500EB
:1000B0000C94000011B88FEF82B984B915B80E9472
:1000C000930010920301109202011092010110920C
:1000D000000180E00E94AA00C8E7D0E088819981F1
:1000E0009927909303018093020181E00E94AA0066
:1000F0008881998199279093010180930001209133
:10010000020130910301232B11F4892B11F08FEFA1
:1001100085B92FEF80E792E0215080409040E1F7D1
:1001200000C00000D6CFEAE7F0E0808183608083E2
:10013000ACE7B0E08C9180648C9380818062808396
:100140008C9180628C9380818068808380818064C0
:1001500080830895883040F4ECE7F0E09081987F48
:0E01600090839081892B80830895F894FFCFBF
:00000001FF
