:100000000C9446000C9458000C9458000C94580022
:100010000C9458000C9458000C9458000C94580000
:100020000C9458000C9458000C9458000C945800F0
:100030000C9458000C9458000C9458000C945800E0
:100040000C9458000C9458000C9458000C945800D0
:100050000C9458000C9458000C9458000C945800C0
:100060000C9458000C9458000C9458000C945800B0
:100070000C9458000C9458000C9458000C945800A0
:100080000C9458000C9458000C94580011241FBE76
:10009000CFEFD0E4DEBFCDBF21E0A0E0B1E001C0F2
:1000A0001D92A730B207E1F70E945A000C9461013B
:1000B0000C94000011B88FEF82B984B915B88AB9D1
:1000C0008BB987B988B90E9422010E94F200109270
:1000D000040110920301109202011092010110928A
:1000E0000001109205011092060180E00E940901B2
:1000F0002FEF80E792E0215080409040E1F700C070
:1001000000000E941401909304018093030181393F
:1001100021E0920738F488E0809300018CE60E9489
:10012000460115C09C0121593140273C310518F486
:10013000109200010CC08835924038F080E1809325
:10014000000182E70E94460102C01092000181E096
:100150000E9409018FEF90E722E0815090402040FB
:10016000E1F700C000000E94140190930201809307
:100170000101813921E0920738F482E08093050182
:100180008CE60E94460115C09C0121593140273C54
:10019000310518F4109205010CC08835924038F0F2
:1001A00080E48093050184E60E94460102C010921B
:1001B00005018FEF90E722E0815090402040E1F769
:1001C00000C000009091000180910501892B85B944
:1001D0001092000110920501809106018F5F8093BB
:1001E000060183CFEAE7F0E0808183608083ACE79B
:1001F000B0E08C9180648C938081806280838C914C
:1002000080628C9380818068808380818064808319
:100210000895883040F4ECE7F0E09081987F908377
:100220009081892B80830895809178009091790046
:100230000024880F991F001C880F991F001C892F0C
:10024000902D0895E1ECF0E0808188618083E2ECFC
:10025000F0E080818660808383E38093C400109205
:10026000C50008958091C000807208958091C000FB
:10027000807408958091C0008078089502C08091B4
:10028000C6008091C0008823D4F308959091C000E7
:1002900095FFFCCF8093C60008958091C00088230D
:1002A000E4F78091C6000895CF93DF93EC0103C07B
:1002B0000E944601219688818111FACFDF91CF916A
:0602C0000895F894FFCF41
:00000001FF
