:100000000C9446000C9458000C9458000C94580022
:100010000C9458000C9458000C9458000C94580000
:100020000C9458000C9458000C9458000C945800F0
:100030000C9458000C9458000C9458000C945800E0
:100040000C9458000C9458000C9458000C945800D0
:100050000C9458000C9458000C9458000C945800C0
:100060000C9458000C9458000C9458000C945800B0
:100070000C9458000C9458000C9458000C945800A0
:100080000C9458000C9458000C94580011241FBE76
:10009000CFEFD0E4DEBFCDBF21E0A0E0B1E001C0F2
:1000A0001D92A730B207E1F70E9460000C94810115
:1000B0000C9400000E942F018AE00E942F010895F5
:1000C00011B88FEF82B914B885B98AB91BB81092EC
:1000D00000010E940B010E94510110920501109233
:1000E000040110920301109202011092010110927A
:1000F000060180E00E9468012FEF80E792E0215026
:1001000080409040E1F700C000000E94730190938E
:1001100005018093040193B181E089278170809368
:100120000001882371F086E60E945A008091000148
:100130000E945A0081E090910001911180E080932B
:1001400000018091040190910501813921E092071D
:1001500038F488E0809301018CE60E945A0015C0B3
:100160009C0121593140273C310518F410920101BE
:100170000CC08835924038F080E18093010182E71D
:100180000E945A0002C01092010181E00E946801A1
:100190008FEF90E722E0815090402040E1F700C0CF
:1001A00000000E9473019093030180930201813942
:1001B00021E0920738F482E08093060185E70E94EF
:1001C0005A0015C09C0121593140273C310518F4D3
:1001D000109206010CC08835924038F080E480937C
:1001E000060184E60E945A0002C0109206018FEFB9
:1001F00090E722E0815090402040E1F700C00000ED
:100200009091010180910601892B85B9109201011D
:10021000109206016ECFE1ECF0E08081886180836E
:10022000E2ECF0E080818660808383E38093C40009
:100230001092C50008958091C00080720895809149
:10024000C000807408958091C0008078089502C035
:100250008091C6008091C0008823D4F308959091C6
:10026000C00095FFFCCF8093C60008959091C00018
:1002700095FFFCCF8093C60008958091C00088232D
:10028000E4F78091C6000895CF93DF93EC0103C09B
:100290000E943601219688818111FACFDF91CF919A
:1002A0000895EAE7F0E0808183608083ACE7B0E006
:1002B0008C9180648C938081806280838C91806239
:1002C0008C9380818068808380818064808308959E
:1002D000883040F4ECE7F0E09081987F9083908143
:1002E000892B808308958091780090917900002473
:1002F000880F991F001C880F991F001C892F902DB3
:060300000895F894FFCF00
:00000001FF
