:100000000C9446000C945D000C945D000C945D0013
:100010000C945D000C945D000C945D000C945D00EC
:100020000C945D000C945D000C945D000C945D00DC
:100030000C945D000C945D000C945D000C945D00CC
:100040000C945D000C945D000C945D000C945D00BC
:100050000C945D000C945D000C945D000C945D00AC
:100060000C945D000C945D000C945D000C945D009C
:100070000C945D000C945D000C945D000C945D008C
:100080000C945D000C945D000C945D0011241FBE67
:10009000CFEFD0E4DEBFCDBF11E0A0E0B1E0E2E9F8
:1000A000F1E000E00BBF02C007900D92AE30B10747
:1000B000D9F70E9488000C94C7000C940000CF93DD
:1000C000DF9300D01F92CDB7DEB789837B836A832D
:1000D00089818A3031F48A819B81BC018DE00E9444
:1000E0005F0080EC90E0FC018081882F90E08072BE
:1000F0009927892BB1F386EC90E02981FC012083BC
:1001000080E090E00F900F900F90DF91CF910895D5
:10011000CF93DF9300D000D0CDB7DEB781E290E07F
:10012000FC01108282E290E02FEFFC01208387E245
:1001300090E02FEFFC01208388E290E0FC01108228
:100140001C82198280E290E0FC0180818C831B82FA
:100150001A8213C08C81282F30E08A819B81880FFE
:10016000991F82239323892B19F089818F5F8983BB
:100170008A819B8101969B838A838A819B810497D4
:100180004CF388E290E02981FC012083DBCFF894D6
:02019000FFCF9F
:0E01920000000002000000005F0000000000FE
:00000001FF
